:100000000C9434000C9446000C9446000C945E0052
:100010000C9446000C9446000C9446000C94460048
:100020000C9446000C9446000C9446000C94460038
:100030000C9446000C947B000C9446000C944600F3
:100040000C9446000C9446000C9446000C94460018
:100050000C9446000C9446000C9446000C94460008
:100060000C9446000C94460011241FBECFEFD8E03C
:10007000DEBFCDBF21E0A0E0B1E001C01D92A53000
:10008000B207E1F70E949E000C9424010C9400003A
:1000900048EE53E0849F9001859F300D949F300D72
:1000A000112480E090E0EFECF7E03197F1F700C029
:1000B0000000019628173907B0F708958F938FB77E
:1000C0008F939F9383B1882391F05A9A8091020174
:1000D00090910301009731F481E090E09093030147
:1000E000809302019F918F918FBF8F9118955A989D
:1000F00083E090E0F3CF8F938FB78F939F9380919E
:10010000020190910301029749F4809100019091BE
:100110000101019690930101809300018BE791EE1C
:1001200090938500809384009F918F918FBF8F91D2
:100130001895009711F00C944800089514B88AB1EE
:100140008D618AB91BB881E090E00E9448005A9AFC
:1001500081E090E00E9448005B9A81E090E00E947C
:1001600048005C9A81E090E00E9448001BB88091B2
:10017000680081608093680080916B00806280934A
:100180006B008BE791EE909385008093840081E073
:1001900080936F001092800085E0809381007894B6
:1001A00022E030E044E050E08091020190910301B0
:1001B0008330910581F160F48130910591F00297CF
:1001C000C1F0EFE0F7E23197F1F700C00000ECCFAB
:1001D0000497B9F78FE295E70197F1F700C00000A7
:1001E000F0CF5B9AF8943093030120930201789446
:1001F000E8CF80910001909101010A9710F3F894E3
:1002000010920101109200015B985C9A50930301D7
:1002100040930201ECCF8FEA90E0EFE1FEE43197EA
:10022000F1F700C0000001970097B9F7F8948091AA
:100230000201909103010397D1F65B98109203019C
:0C024000109202015C98D3CFF894FFCF1D
:00000001FF
