:100000000C9434000C9451000C9451000C94510049
:100010000C9451000C9451000C9451000C9451001C
:100020000C9451000C940C010C9451000C94510050
:100030000C9451000C94AE000C9451000C9451009F
:100040000C9466000C9451000C9451000C945100D7
:100050000C9451000C9451000C9451000C945100DC
:100060000C9451000C94510011241FBECFEFD8E026
:10007000DEBFCDBF11E0A0E0B1E0E2EEFFE002C0E4
:1000800005900D92A437B107D9F721E0A4E7B1E0BC
:1000900001C01D92AF38B207E1F70E9461030C94D2
:1000A000EF070C9400009C0180E090E0EFECF7E09B
:1000B0003197F1F700C00000019628173907B0F713
:1000C0000895009711F00E94530008951F921FB6E3
:1000D0001F9211248F939F9383B18823A1F15A9A81
:1000E00080917501811105C080917401811101C059
:1000F000599A80918801882321F010927B011092F7
:100100007A0180918901882349F080917C01909146
:100110007D01019690937D0180937C0180918801FF
:10012000882349F080917A0190917B010196909308
:100130007B0180937A018CE986BD9F918F911F90FE
:100140001FBE1F9018955A98809175018111D9CFC3
:10015000809174018111D5CF5998D3CF1F921FB6CA
:100160001F9211242F938F939F93809182019091DE
:1001700083018335924098F48091820190918301AC
:1001800001969093830180938201809182019091E6
:1001900083018335924018F081E08093760180914D
:1001A000840190918501873B910548F480918401F9
:1001B00090918501019690938501809384018091AF
:1001C0007601882379F080918001909181010797D1
:1001D00048F4809180019091810101969093810172
:1001E0008093800180918801882349F08091780173
:1001F00090917901019690937901809378018CE731
:1002000091EE90938500809384009F918F912F9120
:100210001F901FBE1F9018951F921FB61F9211248A
:100220002F933F938F939F9380917E0190917F01B5
:10023000019690937F0180937E0120917E01309101
:100240007F0180910001909101018217930740F492
:1002500088B191E0892788B910927F0110927E01C0
:100260008CE98093B2009F918F913F912F911F90C5
:100270001FBE1F9018959C01892B79F080E090E0BB
:100280004FEF59E668E1415050406040E1F700C04F
:10029000000001962817390798F70895CF93DF9348
:1002A000282FCB0130E03093010120930001C1EBF6
:1002B000D0E022E028830E9461001882DF91CF9174
:1002C0000895BC0186E00E944E01089568E270E046
:1002D00084E10E944E01089560E570E084E00E9490
:1002E0004E01089568E270E084E00E944E0188E2C9
:1002F00090E00E94530068E270E084E00E944E01AA
:10030000089569E170E083E00E944E0169E170E0C8
:1003100085E00E944E0169E170E084E00E944E0198
:1003200069E170E081E00E944E0169E170E086E0E1
:100330000E944E0169E170E082E00E944E0169E195
:1003400070E088E00E944E010895CF93C0E865E018
:1003500070E08C2F0E944E01C150C111F8CFCF9197
:1003600008951BB884EF91E00E9453005A9A84EFDD
:1003700091E00E9453005B9A84EF91E00E94530049
:100380005C9A84EC99E00E9453001BB8089514B85D
:10039000389A8AB18F638AB90895CF93DF93EC01BD
:1003A000892B11F40E94D9078E81EF81F88590E0A6
:1003B00009958D81E985FA8590E00995DF91CF91C6
:1003C0000895CF93DF93EC01892B11F40E94D90794
:1003D0008D81EF81F88590E009958D81E985FA8519
:1003E00090E00995DF91CF9108956BE070E081E096
:1003F00090E00E948606FC0188E1808380E090E026
:10040000A0E4B0E481839283A383B48382E38583F1
:1004100086E986831086178212861186CF01089599
:10042000A6E0B0E0E6E1F2E00C94F3048D839E8355
:100430008D819E81892B11F40E94D90786EF860F4A
:100440008333D0F7AD81BE816C9370E080EB94E094
:100450000E94CF04ED81FE816583CB01770FAA0B4B
:10046000BB0B89839A83AB83BC83BC01CD010E9403
:100470006405AD81BE8111962D913D914D915C91A8
:10048000149769837A838B839C8369817A818B81BA
:100490009C810E94F10569837A838B839C836981A7
:1004A0007A818B819C810E943305ED81FE81668378
:1004B0002696E2E00C940F05FC01892B11F40E94B2
:1004C000D90780810895A6E0B0E0E9E6F2E00C9457
:1004D000EF048D839E837A018B012D813E81232B36
:1004E00011F40E94D90720E030E040E250E4E982B4
:1004F000FA826B831C8369817A818B819C810E9443
:10050000EC0587FDEECF20E030E040E950E4698162
:100510007A818B819C810E942E05181614F3C701E5
:10052000D801ED81FE8181839283A383B483858189
:10053000282F30E040E050E029833A834B835C83EE
:10054000CA01B9010E9464059701A80169837A83F1
:100550008B839C8369817A818B819C810E94F105C8
:1005600069837A838B839C8369817A818B819C8167
:100570000E943305ED81FE8166832696E6E00C94A9
:100580000B05A4E0B0E0E7ECF2E00C94F304FC010E
:10059000892B11F40E94D90781819281A381B481B2
:1005A000BC01CD012496E2E00C940F05FC01892BDF
:1005B00011F40E94D90785810895FC01892B11F45B
:1005C0000E94D90786810895FC01892B11F40E94AD
:1005D000D907678370870895FC01892B11F40E9465
:1005E000D907618772870895EF92FF920F931F9347
:1005F000CF93DF93EC01CB01209711F40E94D90730
:100600000E94E5078C0147E0E42EF80121918F015B
:10061000211105C0CDB7DEB7E6E00C940B05203202
:1006200041F48D81E985FA85E89EC0011124099580
:10063000ECCFE2E0F1E080E090E02B3279F58D81C3
:10064000E985FA8524E0829FC00111240995CE0135
:100650000E94E101CE010E94CD01CE010E94E10184
:10066000CE010E94CD01CE010E94E1018D81E9857C
:10067000FA8524E0829FC0011124D9CFCE01F0FE7B
:1006800004C00E94CD01F69412C00E94E101FBCF8C
:10069000019632968832910509F4B7CF3081231341
:1006A000F7CF880F991FFC01EE5FFE4FF18081E0CC
:1006B000F812E4CF8D8190E0E985FA85880F991FC3
:1006C000B6CF0E94C7010E94B1010E94F501EC0162
:1006D0006CE10E94100261E671E0CE010E94E4022A
:1006E00061E670E0CE010E94EC029CE996BD81E0DB
:1006F00080936E0014BC22E025BD2BE731EE3093D1
:1007000085002093840080936F001092800025E084
:10071000209381009093B200809370001092B000FB
:100720001092B10078945B9A589A84EF91E00E94FD
:1007300053000E94A50184EF91E00E94530068E5F8
:1007400071E0CE010E94F40284EF91E00E94530018
:100750005B98589884EF91E00E94530011E083B1B8
:10076000882309F456C05B9A589A809189018111B7
:1007700004C0109285011092840110928A0183B105
:10078000882329F080917501882309F4B9C08091EC
:100790007501882309F4FCC0109279011092780148
:1007A0001093880110927B0110927A0110928601B9
:1007B00080917A0190917B015C9888399A4308F482
:1007C000BFC080918601882389F05B9A589A88EC93
:1007D00090E00E94530065E671E0CE010E94F402B1
:1007E00088EC90E00E9453005B9858981092880122
:1007F0001092750180E08093890110927D01109222
:100800007C01109281011092800110927B01109264
:100810007A0180917C0190917D0180319742F0F0C6
:10082000809189018823D1F083B1811117C0109381
:10083000740180917601882309F4ACC00E94720192
:100840005B98589888EC90E00E94530010927401D5
:100850001092890110927D0110927C0180917601A5
:10086000882309F47CCF80918001909181010797C2
:1008700008F475CF109283011092820110927601D4
:1008800010937401589A5D9A85E1E82EF12C5B9AD9
:100890008AEF90E00E9453005B988AEF90E00E94FC
:1008A000530081E0E81AF108E114F10481F75D9842
:1008B000809187018F5F80938701863088F05B9AF3
:1008C00084E690E00E9453006BE671E0CE010E9446
:1008D000F40284E690E00E945300109287015B9836
:1008E00083B181115AC05B98589888EC90E00E94BF
:1008F00053001092810110928001109274012FCF49
:100900008091840190918501873B910508F437CF50
:1009100080918A01811133CF5C9A01E000937501C7
:1009200084E690E00E94530059980E94810184E679
:1009300090E00E94530000938A015B9858981FCF63
:1009400089E190E00E9453008091780190917901B3
:100950000597C0F05C9A5B9A589A88EC90E00E94E8
:10096000530067E671E0CE010E94F40288EC90E04B
:100970000E9453005B985898109279011092780168
:10098000109386015C9A82E390E00E94530010CF9E
:1009900081E031CF0E946C0153CF5B9AAACF97FBC5
:1009A000072E16F4009407D077FD09D00E941A058F
:1009B00007FC05D03EF4909581959F4F0895709562
:1009C00061957F4F08952F923F924F925F926F9261
:1009D0007F928F929F92AF92BF92CF92DF92EF92CF
:1009E000FF920F931F93CF93DF93CDB7DEB7CA1B50
:1009F000DB0B0FB6F894DEBF0FBECDBF09942A887B
:100A0000398848885F846E847D848C849B84AA8422
:100A1000B984C884DF80EE80FD800C811B81AA81AF
:100A2000B981CE0FD11D0FB6F894DEBF0FBECDBF7A
:100A3000ED010895AA1BBB1B51E107C0AA1FBB1FF4
:100A4000A617B70710F0A61BB70B881F991F5A955A
:100A5000A9F780959095BC01CD0108950E949F054E
:100A600008F481E008950E94CB0588F09F5798F024
:100A7000B92F9927B751B0F0E1F0660F771F881FA3
:100A8000991F1AF0BA95C9F714C0B13091F00E94BD
:100A9000E505B1E008950C94E505672F782F8827C8
:100AA000B85F39F0B93FCCF3869577956795B395E4
:100AB000D9F73EF490958095709561957F4F8F4F53
:100AC0009F4F0895E89409C097FB3EF49095809558
:100AD000709561957F4F8F4F9F4F9923A9F0F92F04
:100AE00096E9BB279395F695879577956795B79582
:100AF000F111F8CFFAF4BB0F11F460FF1BC06F5F68
:100B00007F4F8F4F9F4F16C0882311F096E911C079
:100B1000772321F09EE8872F762F05C0662371F09A
:100B200096E8862F70E060E02AF09A95660F771FAE
:100B3000881FDAF7880F9695879597F90895990F8A
:100B40000008550FAA0BE0E8FEEF16161706E80797
:100B5000F907C0F012161306E407F50798F0621BB8
:100B6000730B840B950B39F40A2661F0232B242B8D
:100B7000252B21F408950A2609F4A140A6958FEFAC
:100B8000811D811D089557FD9058440F551F59F040
:100B90005F3F71F04795880F97FB991F61F09F3F6A
:100BA00079F087950895121613061406551FF2CF93
:100BB0004695F1DF08C0161617061806991FF1CFE3
:100BC00086957105610508940895E894BB2766270A
:100BD0007727CB0197F908950E949F0508F48FEFBE
:100BE00008950E9404060C9475060E94670638F06A
:100BF0000E946E0620F0952311F00C945E060C9472
:100C0000640611240C94E6050E94C30570F3959FB9
:100C1000C1F3950F50E0551F629FF001729FBB27F3
:100C2000F00DB11D639FAA27F00DB11DAA1F649F8F
:100C30006627B00DA11D661F829F2227B00DA11D42
:100C4000621F739FB00DA11D621F839FA00D611DC8
:100C5000221F749F3327A00D611D231F849F600DE9
:100C6000211D822F762F6A2F11249F5750409AF012
:100C7000F1F088234AF0EE0FFF1FBB1F661F771F9E
:100C8000881F91505040A9F79E3F510580F00C9469
:100C90005E060C94E6055F3FE4F3983ED4F3869538
:100CA00077956795B795F795E7959F5FC1F7FE2B09
:100CB000880F911D9695879597F9089597F99F67E5
:100CC00080E870E060E008959FEF80EC08950024D4
:100CD0000A941616170618060906089500240A94A1
:100CE00012161306140605060895092E0394000C27
:100CF00011F4882352F0BB0F40F4BF2B11F460FFB6
:100D000004C06F5F7F4F8F4F9F4F08950F931F93C6
:100D1000CF93DF93869F8001879F100D969F100DC4
:100D20001124C8010E94A206EC01009729F0A80135
:100D300060E070E00E94DE07CE01DF91CF911F914D
:100D40000F9108950F931F93CF93DF939C01029708
:100D500010F422E030E0E0918B01F0918C0180E012
:100D600090E0A0E0B0E0309791F4009709F445C01E
:100D7000821B930B84309105B8F58A819B816115A4
:100D8000710569F1FB0193838283FE0111C04081EB
:100D900051810281138142175307F0F04217530724
:100DA00099F4109761F012960C93129713961C9376
:100DB0003296CF01DF91CF911F910F91089500934B
:100DC0008B0110938C01F4CF009719F04817590745
:100DD00018F4CA01BD01EF01DF01F801C4CF9093FF
:100DE0008C0180938B01D1CFFE01E80FF91F219375
:100DF0003193029799838883DCCF80918D01909104
:100E00008E01892B41F4809154019091550190936A
:100E10008E0180938D018091520190915301009732
:100E200041F48DB79EB74091560150915701841BF4
:100E3000950B40918D0150918E014817590708F08C
:100E4000B8CF841B950B8217930708F4B2CFB90172
:100E50006E5F7F4F8617970708F4ABCF640F751F3F
:100E600070938E0160938D01FA0121933193A1CF8C
:100E7000CF93DF939C010097D9F0FC013297138246
:100E80001282A0918B01B0918C01109709F086C05D
:100E900080819181280F391F80918D0190918E0161
:100EA0008217930709F05FC0F0938E01E0938D01E4
:100EB000DF91CF910895CE17DF0708F059C0AE013A
:100EC0000A80DB81C02D2097B1F7EA01FB83EA831A
:100ED00029913991CE01820F931FE817F90761F428
:100EE000808191810296820F931FEA019983888302
:100EF000828193819B838A83E0E0F0E012968D915A
:100F00009C911397009709F04EC0ED01899199913A
:100F10008C0F9D1F20918D0130918E01281739076C
:100F200039F6309709F042C010928C0110928B0173
:100F3000B0938E01A0938D01BBCFB383A283808138
:100F40009181280F391FA217B30769F402962D91DA
:100F50003C911197820F931F9183808312968D91FC
:100F60009C9193838283F0938C01E0938B01A0CFBB
:100F7000D383C28380819181280F391FC217D30781
:100F800009F0A3CF029628813981820F931F9183A4
:100F900080838A819B819383828397CFAE17BF071B
:100FA00060F6ED018CCFFD01DC01A8CF1382128227
:100FB000BFCF81E090E0F8940C94EF07DC0101C012
:100FC0006D9341505040E0F70895DC016C916156FB
:100FD0006A3108F0605E6F5B6D93C1F70895F89415
:020FE000FFCF41
:100FE20004002E6A2C733F4C2F29410642114315EF
:100FF200440945024614470B481049044A1E4B0D4A
:101002004C124D074E054F0F5016511B520A5308F2
:101012005403550C5618570E5819591D5A13313E80
:10102200323C333834303520362137233827392FB4
:10103200303F00008F01200043513055474D522070
:10104200494E3531554B00544F54004351305547AA
:041052004D520000FB
:00000001FF
