:100000000C9434000C9451000C9451000C94510049
:100010000C9451000C9451000C9451000C9451001C
:100020000C9451000C94D6000C9451000C94510087
:100030000C9451000C9485000C9451000C945100C8
:100040000C9461000C9451000C9451000C945100DC
:100050000C9451000C9451000C9451000C945100DC
:100060000C9451000C94510011241FBECFEFD8E026
:10007000DEBFCDBF11E0A0E0B1E0EAEAFCE002C0E3
:1000800005900D92A835B107D9F721E0A8E5B1E0B8
:1000900001C01D92AE36B207E1F70E942F030C9407
:1000A00053060C9400009C0180E090E0EFECF7E038
:1000B0003197F1F700C00000019628173907B0F713
:1000C00008951F921FB61F9211248F9383B1882326
:1000D00089F05A9A80915901811105C08091580187
:1000E000811101C0599A8CE986BD8F911F901FBE66
:1000F0001F9018955A98809159018111F4CF8091E1
:1001000058018111F0CF5998EECF1F921FB61F9260
:1001100011242F938F939F93809166019091670193
:100120008335924098F48091660190916701019621
:1001300090936701809366018091660190916701B9
:100140008335924018F081E080935A0180916801D4
:1001500090916901873B910548F4809168019091E5
:1001600069010196909369018093680180915A0119
:10017000882379F08091640190916501079748F494
:10018000809164019091650101969093650180933F
:1001900064018CE791EE90938500809384009F9199
:1001A0008F912F911F901FBE1F9018951F921FB601
:1001B0001F9211242F933F938F939F9380916201FD
:1001C0009091630101969093630180936201209165
:1001D00062013091630180910001909101018217C9
:1001E000930740F488B191E0892788B910926301A0
:1001F000109262018CE98093B2009F918F913F91A0
:100200002F911F901FBE1F9018959C01892B79F08C
:1002100080E090E04FEF59E668E141505040604087
:10022000E1F700C0000001962817390798F70895F4
:10023000009711F00E9453000895CF93DF93282F69
:10024000CB0130E03093010120930001C1EBD0E0FD
:1002500022E028830E9418011882DF91CF9108952F
:10026000BC0186E00E941D01089568E270E084E10F
:100270000E941D01089560E570E084E00E941D0168
:10028000089568E270E084E00E941D0188E290E039
:100290000E94530068E270E084E00E941D0108950E
:1002A00069E170E083E00E941D0169E170E085E092
:1002B0000E941D0169E170E084E00E941D0169E176
:1002C00070E081E00E941D0169E170E086E00E941B
:1002D0001D0169E170E082E00E941D0169E170E0AA
:1002E00088E00E941D010895CF93C0E865E070E0AA
:1002F0008C2F0E941D01C150C111F8CFCF910895DC
:100300001BB884EF91E00E9453005A9A84EF91E069
:100310000E9453005B9A84EF91E00E9453005C9A24
:1003200084EC99E00E945300FFCF14B8389A8AB148
:100330008F638AB90895CF93DF93EC01892B11F471
:100340000E943D068E81EF81F88590E009958D81B0
:10035000E985FA8590E00995DF91CF910895CF93D3
:10036000DF93EC01892B11F40E943D068D81EF8112
:10037000F88590E009958D81E985FA8590E00995E9
:10038000DF91CF9108956BE070E081E090E00E94F2
:10039000EA04FC0188E1808380E090E0A0E4B0E41E
:1003A00081839283A383B48382E3858386E98683F2
:1003B0001086178212861186CF010895A6E0B0E05C
:1003C000E4EEF1E00C9457038D839E838D819E8132
:1003D000892B11F40E943D0686EF860F8333D0F7F8
:1003E000AD81BE816C9370E080EB94E00E9433039A
:1003F000ED81FE816583CB01770FAA0BBB0B89834F
:100400009A83AB83BC83BC01CD010E94C803AD813C
:10041000BE8111962D913D914D915C911497698308
:100420007A838B839C8369817A818B819C810E94F2
:10043000550469837A838B839C8369817A818B815C
:100440009C810E949703ED81FE8166832696E2E0FF
:100450000C947303FC01892B11F40E943D068081EA
:100460000895A6E0B0E0E7E3F2E00C9453038D8337
:100470009E837A018B012D813E81232B11F40E94F2
:100480003D0620E030E040E250E4E982FA826B83EE
:100490001C8369817A818B819C810E94500487FD35
:1004A000EECF20E030E040E950E469817A818B8131
:1004B0009C810E949203181614F3C701D801ED81A4
:1004C000FE8181839283A383B4838581282F30E0CA
:1004D00040E050E029833A834B835C83CA01B90131
:1004E0000E94C8039701A80169837A838B839C8348
:1004F00069817A818B819C810E94550469837A830A
:100500008B839C8369817A818B819C810E94970374
:10051000ED81FE8166832696E6E00C946F03A4E0ED
:10052000B0E0E5E9F2E00C945703FC01892B11F4EB
:100530000E943D0681819281A381B481BC01CD01DD
:100540002496E2E00C947303FC01892B11F40E94C1
:100550003D0685810895FC01892B11F40E943D061A
:1005600086810895FC01892B11F40E943D06678362
:1005700070870895FC01892B11F40E943D06618764
:1005800072870895EF92FF920F931F93CF93DF939B
:10059000EC01CB01209711F40E943D060E94490610
:1005A0008C0147E0E42EF80121918F01211105C053
:1005B000CDB7DEB7E6E00C946F03203241F48D81B5
:1005C000E985FA85E89EC00111240995ECCFE2E0A7
:1005D000F1E080E090E02B3279F58D81E985FA85B4
:1005E00024E0829FC00111240995CE010E94AF0131
:1005F000CE010E949B01CE010E94AF01CE010E945C
:100600009B01CE010E94AF018D81E985FA8524E02E
:10061000829FC0011124D9CFCE01F0FE04C00E94F8
:100620009B01F69412C00E94AF01FBCF0196329657
:100630008832910509F4B7CF30812313F7CF880FA3
:10064000991FFC01EE5FFE4FF18081E0F812E4CFCC
:100650008D8190E0E985FA85880F991FB6CF0E94B9
:1006600095010E94800197FB072E16F4009407D095
:1006700077FD09D00E947E0307FC05D03EF49095DB
:1006800081959F4F0895709561957F4F08952F92A2
:100690003F924F925F926F927F928F929F92AF9212
:1006A000BF92CF92DF92EF92FF920F931F93CF935F
:1006B000DF93CDB7DEB7CA1BDB0B0FB6F894DEBFF6
:1006C0000FBECDBF09942A88398848885F846E841C
:1006D0007D848C849B84AA84B984C884DF80EE8066
:1006E000FD800C811B81AA81B981CE0FD11D0FB66F
:1006F000F894DEBF0FBECDBFED010895AA1BBB1B52
:1007000051E107C0AA1FBB1FA617B70710F0A61B11
:10071000B70B881F991F5A95A9F780959095BC0132
:10072000CD0108950E94030408F481E008950E9419
:100730002F0488F09F5798F0B92F9927B751B0F040
:10074000E1F0660F771F881F991F1AF0BA95C9F755
:1007500014C0B13091F00E944904B1E008950C94A6
:100760004904672F782F8827B85F39F0B93FCCF359
:10077000869577956795B395D9F73EF490958095D2
:10078000709561957F4F8F4F9F4F0895E89409C0F2
:1007900097FB3EF490958095709561957F4F8F4FB4
:1007A0009F4F9923A9F0F92F96E9BB279395F695CA
:1007B000879577956795B795F111F8CFFAF4BB0F48
:1007C00011F460FF1BC06F5F7F4F8F4F9F4F16C0AC
:1007D000882311F096E911C0772321F09EE8872F36
:1007E000762F05C0662371F096E8862F70E060E0F2
:1007F0002AF09A95660F771F881FDAF7880F96956B
:10080000879597F90895990F0008550FAA0BE0E80E
:10081000FEEF16161706E807F907C0F012161306C2
:10082000E407F50798F0621B730B840B950B39F402
:100830000A2661F0232B242B252B21F408950A2668
:1008400009F4A140A6958FEF811D811D089557FDE4
:100850009058440F551F59F05F3F71F04795880F2E
:1008600097FB991F61F09F3F79F0879508951216C5
:1008700013061406551FF2CF4695F1DF08C0161671
:1008800017061806991FF1CF869571056105089422
:100890000895E894BB2766277727CB0197F9089539
:1008A0000E94030408F48FEF08950E9468040C94DA
:1008B000D9040E94CB0438F00E94D20420F0952382
:1008C00011F00C94C2040C94C80411240C944A0432
:1008D0000E94270470F3959FC1F3950F50E0551FB8
:1008E000629FF001729FBB27F00DB11D639FAA2785
:1008F000F00DB11DAA1F649F6627B00DA11D661FD4
:10090000829F2227B00DA11D621F739FB00DA11DF4
:10091000621F839FA00D611D221F749F3327A00DAE
:10092000611D231F849F600D211D822F762F6A2F4A
:1009300011249F5750409AF0F1F088234AF0EE0FAF
:10094000FF1FBB1F661F771F881F91505040A9F7DC
:100950009E3F510580F00C94C2040C944A045F3F02
:10096000E4F3983ED4F3869577956795B795F79518
:10097000E7959F5FC1F7FE2B880F911D9695879590
:1009800097F9089597F99F6780E870E060E008950F
:100990009FEF80EC089500240A9416161706180697
:1009A0000906089500240A94121613061406050673
:1009B0000895092E0394000C11F4882352F0BB0F04
:1009C00040F4BF2B11F460FF04C06F5F7F4F8F4F67
:1009D0009F4F08950F931F93CF93DF93869F8001BE
:1009E000879F100D969F100D1124C8010E940605C7
:1009F000EC01009729F0A80160E070E00E94420637
:100A0000CE01DF91CF911F910F9108950F931F9306
:100A1000CF93DF939C01029710F422E030E0E09145
:100A20006A01F0916B0180E090E0A0E0B0E03097C7
:100A300091F4009709F445C0821B930B8430910513
:100A4000B8F58A819B816115710569F1FB0193837A
:100A50008283FE0111C040815181028113814217BE
:100A60005307F0F04217530799F4109761F012966C
:100A70000C93129713961C933296CF01DF91CF916E
:100A80001F910F91089500936A0110936B01F4CFA9
:100A9000009719F04817590718F4CA01BD01EF0172
:100AA000DF01F801C4CF90936B0180936A01D1CF2D
:100AB000FE01E80FF91F21933193029799838883F0
:100AC000DCCF80916C0190916D01892B41F4809174
:100AD00054019091550190936D0180936C01809128
:100AE000520190915301009741F48DB79EB7409108
:100AF000560150915701841B950B40916C01509108
:100B00006D014817590708F0B8CF841B950B821761
:100B1000930708F4B2CFB9016E5F7F4F861797072E
:100B200008F4ABCF640F751F70936D0160936C0177
:100B3000FA0121933193A1CFCF93DF939C010097CA
:100B4000D9F0FC01329713821282A0916A01B09110
:100B50006B01109709F086C080819181280F391FA1
:100B600080916C0190916D018217930709F05FC02D
:100B7000F0936D01E0936C01DF91CF910895CE1752
:100B8000DF0708F059C0AE010A80DB81C02D209735
:100B9000B1F7EA01FB83EA8329913991CE01820FF3
:100BA000931FE817F90761F4808191810296820F03
:100BB000931FEA0199838883828193819B838A832F
:100BC000E0E0F0E012968D919C911397009709F068
:100BD0004EC0ED01899199918C0F9D1F20916C0160
:100BE00030916D012817390739F6309709F042C066
:100BF00010926B0110926A01B0936D01A0936C0189
:100C0000BBCFB383A28380819181280F391FA217A4
:100C1000B30769F402962D913C911197820F931FAF
:100C20009183808312968D919C9193838283F0931C
:100C30006B01E0936A01A0CFD383C283808191814D
:100C4000280F391FC217D30709F0A3CF02962881B6
:100C50003981820F931F918380838A819B81938343
:100C6000828397CFAE17BF0760F6ED018CCFFD01F1
:100C7000DC01A8CF13821282BFCF81E090E0F8940C
:100C80000C945306DC0101C06D9341505040E0F7D5
:100C90000895DC016C9161566A3108F0605E6F5B0B
:0A0CA0006D93C1F70895F894FFCF9B
:100CAA0004002E6A2C733F4C2F294106421143152A
:100CBA00440945024614470B481049044A1E4B0D85
:100CCA004C124D074E054F0F5016511B520A53082E
:100CDA005403550C5618570E5819591D5A13313EBC
:100CEA00323C333834303520362137233827392FF0
:080CFA00303F00006E012000F4
:00000001FF
